{
  "_format": "hh-sol-artifact-1",
  "contractName": "MegaWavePortal",
  "sourceName": "contracts/MegaWavePortal.sol",
  "abi": [
    {
      "inputs": [],
      "stateMutability": "payable",
      "type": "constructor"
    },
    {
      "anonymous": false,
      "inputs": [
        {
          "indexed": true,
          "internalType": "address",
          "name": "from",
          "type": "address"
        },
        {
          "indexed": false,
          "internalType": "address",
          "name": "receiver",
          "type": "address"
        },
        {
          "indexed": false,
          "internalType": "string",
          "name": "waveType",
          "type": "string"
        },
        {
          "indexed": false,
          "internalType": "string",
          "name": "message",
          "type": "string"
        },
        {
          "indexed": false,
          "internalType": "uint256",
          "name": "amountSentInWei",
          "type": "uint256"
        },
        {
          "indexed": false,
          "internalType": "uint256",
          "name": "timestamp",
          "type": "uint256"
        }
      ],
      "name": "NewWave",
      "type": "event"
    },
    {
      "inputs": [
        {
          "internalType": "uint256",
          "name": "inEth",
          "type": "uint256"
        }
      ],
      "name": "ethToGwei",
      "outputs": [
        {
          "internalType": "uint256",
          "name": "",
          "type": "uint256"
        }
      ],
      "stateMutability": "pure",
      "type": "function"
    },
    {
      "inputs": [
        {
          "internalType": "uint256",
          "name": "inEth",
          "type": "uint256"
        }
      ],
      "name": "ethToWei",
      "outputs": [
        {
          "internalType": "uint256",
          "name": "",
          "type": "uint256"
        }
      ],
      "stateMutability": "pure",
      "type": "function"
    },
    {
      "inputs": [],
      "name": "getAllWaves",
      "outputs": [
        {
          "components": [
            {
              "internalType": "address",
              "name": "sender",
              "type": "address"
            },
            {
              "internalType": "address",
              "name": "receiver",
              "type": "address"
            },
            {
              "internalType": "string",
              "name": "waveType",
              "type": "string"
            },
            {
              "internalType": "string",
              "name": "message",
              "type": "string"
            },
            {
              "internalType": "uint256",
              "name": "amountSentInWei",
              "type": "uint256"
            },
            {
              "internalType": "uint256",
              "name": "timestamp",
              "type": "uint256"
            }
          ],
          "internalType": "struct MegaWavePortal.Wave[]",
          "name": "",
          "type": "tuple[]"
        }
      ],
      "stateMutability": "view",
      "type": "function"
    },
    {
      "inputs": [
        {
          "internalType": "uint256",
          "name": "ethAmount",
          "type": "uint256"
        }
      ],
      "name": "getEthUsdRate",
      "outputs": [
        {
          "internalType": "uint256",
          "name": "",
          "type": "uint256"
        }
      ],
      "stateMutability": "view",
      "type": "function"
    },
    {
      "inputs": [
        {
          "internalType": "uint256",
          "name": "usdAmount",
          "type": "uint256"
        }
      ],
      "name": "getEthUsdRateInWei",
      "outputs": [
        {
          "internalType": "uint256",
          "name": "",
          "type": "uint256"
        }
      ],
      "stateMutability": "view",
      "type": "function"
    },
    {
      "inputs": [],
      "name": "getPrice",
      "outputs": [
        {
          "internalType": "uint256",
          "name": "",
          "type": "uint256"
        }
      ],
      "stateMutability": "view",
      "type": "function"
    },
    {
      "inputs": [],
      "name": "getPriceInGwei",
      "outputs": [
        {
          "internalType": "uint256",
          "name": "",
          "type": "uint256"
        }
      ],
      "stateMutability": "view",
      "type": "function"
    },
    {
      "inputs": [],
      "name": "getPriceInWei",
      "outputs": [
        {
          "internalType": "uint256",
          "name": "",
          "type": "uint256"
        }
      ],
      "stateMutability": "view",
      "type": "function"
    },
    {
      "inputs": [],
      "name": "getTotalWaves",
      "outputs": [
        {
          "internalType": "uint256",
          "name": "",
          "type": "uint256"
        }
      ],
      "stateMutability": "view",
      "type": "function"
    },
    {
      "inputs": [],
      "name": "getVersion",
      "outputs": [
        {
          "internalType": "uint256",
          "name": "",
          "type": "uint256"
        }
      ],
      "stateMutability": "view",
      "type": "function"
    },
    {
      "inputs": [
        {
          "internalType": "uint256",
          "name": "weiAmount",
          "type": "uint256"
        }
      ],
      "name": "getWeiUsdRate",
      "outputs": [
        {
          "internalType": "uint256",
          "name": "",
          "type": "uint256"
        }
      ],
      "stateMutability": "view",
      "type": "function"
    },
    {
      "inputs": [
        {
          "internalType": "uint256",
          "name": "inGwei",
          "type": "uint256"
        }
      ],
      "name": "gweiToEth",
      "outputs": [
        {
          "internalType": "uint256",
          "name": "",
          "type": "uint256"
        }
      ],
      "stateMutability": "pure",
      "type": "function"
    },
    {
      "inputs": [
        {
          "internalType": "uint256",
          "name": "inGwei",
          "type": "uint256"
        }
      ],
      "name": "gweiToWei",
      "outputs": [
        {
          "internalType": "uint256",
          "name": "",
          "type": "uint256"
        }
      ],
      "stateMutability": "pure",
      "type": "function"
    },
    {
      "inputs": [
        {
          "internalType": "string",
          "name": "_waveMessage",
          "type": "string"
        }
      ],
      "name": "moneyWave",
      "outputs": [],
      "stateMutability": "payable",
      "type": "function"
    },
    {
      "inputs": [
        {
          "internalType": "string",
          "name": "_waveMessage",
          "type": "string"
        }
      ],
      "name": "superWave",
      "outputs": [],
      "stateMutability": "nonpayable",
      "type": "function"
    },
    {
      "inputs": [],
      "name": "wave",
      "outputs": [],
      "stateMutability": "nonpayable",
      "type": "function"
    },
    {
      "inputs": [
        {
          "internalType": "uint256",
          "name": "",
          "type": "uint256"
        }
      ],
      "name": "waves",
      "outputs": [
        {
          "internalType": "address",
          "name": "sender",
          "type": "address"
        },
        {
          "internalType": "address",
          "name": "receiver",
          "type": "address"
        },
        {
          "internalType": "string",
          "name": "waveType",
          "type": "string"
        },
        {
          "internalType": "string",
          "name": "message",
          "type": "string"
        },
        {
          "internalType": "uint256",
          "name": "amountSentInWei",
          "type": "uint256"
        },
        {
          "internalType": "uint256",
          "name": "timestamp",
          "type": "uint256"
        }
      ],
      "stateMutability": "view",
      "type": "function"
    },
    {
      "inputs": [
        {
          "internalType": "uint256",
          "name": "inWei",
          "type": "uint256"
        }
      ],
      "name": "weiToEth",
      "outputs": [
        {
          "internalType": "uint256",
          "name": "",
          "type": "uint256"
        }
      ],
      "stateMutability": "pure",
      "type": "function"
    },
    {
      "inputs": [
        {
          "internalType": "uint256",
          "name": "inWei",
          "type": "uint256"
        }
      ],
      "name": "weiToGwei",
      "outputs": [
        {
          "internalType": "uint256",
          "name": "",
          "type": "uint256"
        }
      ],
      "stateMutability": "pure",
      "type": "function"
    },
    {
      "inputs": [],
      "name": "whoIsOwner",
      "outputs": [
        {
          "internalType": "address payable",
          "name": "_address",
          "type": "address"
        }
      ],
      "stateMutability": "view",
      "type": "function"
    }
  ],
  "bytecode": "0x608060405233600160006101000a81548173ffffffffffffffffffffffffffffffffffffffff021916908373ffffffffffffffffffffffffffffffffffffffff160217905550611ddc806100546000396000f3fe60806040526004361061011f5760003560e01c806392002bf7116100a0578063c781267a11610064578063c781267a14610411578063f56d270414610453578063f99a910c14610490578063fc504655146104cd578063fcb5f670146104f85761011f565b806392002bf71461032857806398d5fdca146103655780639a2cdc08146103905780639ee1bd0f146103bb578063bd43a908146103e65761011f565b8063628b70c6116100e7578063628b70c61461021d5780636fe15b441461025a57806388439bbc146102715780638a61f4fb146102ae5780638dfd0b03146102eb5761011f565b80630d8e6e2c146101245780631850a3e51461014f5780632e871b8114610178578063504de5f2146101b55780635e582b95146101e0575b600080fd5b34801561013057600080fd5b50610139610514565b6040516101469190611b73565b60405180910390f35b34801561015b57600080fd5b50610176600480360381019061017191906115cc565b6105b2565b005b34801561018457600080fd5b5061019f600480360381019061019a919061160d565b610804565b6040516101ac9190611b73565b60405180910390f35b3480156101c157600080fd5b506101ca610829565b6040516101d79190611b73565b60405180910390f35b3480156101ec57600080fd5b506102076004803603810190610202919061160d565b61083b565b6040516102149190611b73565b60405180910390f35b34801561022957600080fd5b50610244600480360381019061023f919061160d565b610861565b6040516102519190611b73565b60405180910390f35b34801561026657600080fd5b5061026f61088e565b005b34801561027d57600080fd5b506102986004803603810190610293919061160d565b610c11565b6040516102a59190611b73565b60405180910390f35b3480156102ba57600080fd5b506102d560048036038101906102d0919061160d565b610c2a565b6040516102e29190611b73565b60405180910390f35b3480156102f757600080fd5b50610312600480360381019061030d919061160d565b610c46565b60405161031f9190611b73565b60405180910390f35b34801561033457600080fd5b5061034f600480360381019061034a919061160d565b610c5b565b60405161035c9190611b73565b60405180910390f35b34801561037157600080fd5b5061037a610c70565b6040516103879190611b73565b60405180910390f35b34801561039c57600080fd5b506103a5610d18565b6040516103b29190611b73565b60405180910390f35b3480156103c757600080fd5b506103d0610d21565b6040516103dd91906119c5565b60405180910390f35b3480156103f257600080fd5b506103fb610d4b565b6040516104089190611b11565b60405180910390f35b34801561041d57600080fd5b506104386004803603810190610433919061160d565b610fae565b60405161044a96959493929190611aa2565b60405180910390f35b34801561045f57600080fd5b5061047a6004803603810190610475919061160d565b611167565b6040516104879190611b73565b60405180910390f35b34801561049c57600080fd5b506104b760048036038101906104b2919061160d565b611183565b6040516104c49190611b73565b60405180910390f35b3480156104d957600080fd5b506104e26111a3565b6040516104ef9190611b73565b60405180910390f35b610512600480360381019061050d91906115cc565b6111ba565b005b600080738a753747a1fa494ec906ce90e9f37563a8af630e90508073ffffffffffffffffffffffffffffffffffffffff166354fd4d506040518163ffffffff1660e01b815260040160206040518083038186803b15801561057457600080fd5b505afa158015610588573d6000803e3d6000fd5b505050506040513d601f19601f820116820180604052508101906105ac9190611636565b91505090565b606081905060606040518060400160405280600581526020017f7375706572000000000000000000000000000000000000000000000000000000815250905060026040518060c001604052803373ffffffffffffffffffffffffffffffffffffffff168152602001600160009054906101000a900473ffffffffffffffffffffffffffffffffffffffff1673ffffffffffffffffffffffffffffffffffffffff1681526020018381526020018481526020016000815260200142815250908060018154018082558091505060019003906000526020600020906006020160009091909190915060008201518160000160006101000a81548173ffffffffffffffffffffffffffffffffffffffff021916908373ffffffffffffffffffffffffffffffffffffffff16021790555060208201518160010160006101000a81548173ffffffffffffffffffffffffffffffffffffffff021916908373ffffffffffffffffffffffffffffffffffffffff1602179055506040820151816002019080519060200190610742929190611487565b50606082015181600301908051906020019061075f929190611487565b506080820151816004015560a082015181600501555050600160008082825401925050819055503373ffffffffffffffffffffffffffffffffffffffff167f6c467d59b2d9714dffe66bc22fe0fde02a9db546501dc72442fda03a7ac2d2ab600160009054906101000a900473ffffffffffffffffffffffffffffffffffffffff1683856000426040516107f79594939291906119e0565b60405180910390a2505050565b60008061081083611183565b9050600061081d8261083b565b90508092505050919050565b6000600a610835610c70565b02905090565b600080610846610829565b90506000610855848302611167565b90508092505050919050565b60008061086c610829565b9050600061088284838161087c57fe5b04610c46565b90508092505050919050565b60606040518060400160405280600881526020017f7374616e64617264000000000000000000000000000000000000000000000000815250905060606040518060400160405280600381526020017f4e2f410000000000000000000000000000000000000000000000000000000000815250905060026040518060c001604052803373ffffffffffffffffffffffffffffffffffffffff168152602001600160009054906101000a900473ffffffffffffffffffffffffffffffffffffffff1673ffffffffffffffffffffffffffffffffffffffff1681526020018481526020018381526020016000815260200142815250908060018154018082558091505060019003906000526020600020906006020160009091909190915060008201518160000160006101000a81548173ffffffffffffffffffffffffffffffffffffffff021916908373ffffffffffffffffffffffffffffffffffffffff16021790555060208201518160010160006101000a81548173ffffffffffffffffffffffffffffffffffffffff021916908373ffffffffffffffffffffffffffffffffffffffff1602179055506040820151816002019080519060200190610a53929190611487565b506060820151816003019080519060200190610a70929190611487565b506080820151816004015560a082015181600501555050600160008082825401925050819055503373ffffffffffffffffffffffffffffffffffffffff167f6c467d59b2d9714dffe66bc22fe0fde02a9db546501dc72442fda03a7ac2d2ab600160009054906101000a900473ffffffffffffffffffffffffffffffffffffffff168484600042604051610b089594939291906119e0565b60405180910390a2600066038d7ea4c68000905047811115610b5f576040517f08c379a0000000000000000000000000000000000000000000000000000000008152600401610b5690611b33565b60405180910390fd5b60003373ffffffffffffffffffffffffffffffffffffffff1682604051610b85906119b0565b60006040518083038185875af1925050503d8060008114610bc2576040519150601f19603f3d011682016040523d82523d6000602084013e610bc7565b606091505b5050905080610c0b576040517f08c379a0000000000000000000000000000000000000000000000000000000008152600401610c0290611b53565b60405180910390fd5b50505050565b600080670de0b6b3a76400008302905080915050919050565b600080633b9aca008381610c3a57fe5b04905080915050919050565b600080633b9aca008302905080915050919050565b600080633b9aca008302905080915050919050565b600080738a753747a1fa494ec906ce90e9f37563a8af630e905060008173ffffffffffffffffffffffffffffffffffffffff1663feaf968c6040518163ffffffff1660e01b815260040160a06040518083038186803b158015610cd257600080fd5b505afa158015610ce6573d6000803e3d6000fd5b505050506040513d601f19601f82011682018060405250810190610d0a919061165f565b505050915050809250505090565b60008054905090565b6000600160009054906101000a900473ffffffffffffffffffffffffffffffffffffffff16905090565b60606002805480602002602001604051908101604052809291908181526020016000905b82821015610fa557838290600052602060002090600602016040518060c00160405290816000820160009054906101000a900473ffffffffffffffffffffffffffffffffffffffff1673ffffffffffffffffffffffffffffffffffffffff1673ffffffffffffffffffffffffffffffffffffffff1681526020016001820160009054906101000a900473ffffffffffffffffffffffffffffffffffffffff1673ffffffffffffffffffffffffffffffffffffffff1673ffffffffffffffffffffffffffffffffffffffff168152602001600282018054600181600116156101000203166002900480601f016020809104026020016040519081016040528092919081815260200182805460018160011615610100020316600290048015610ed75780601f10610eac57610100808354040283529160200191610ed7565b820191906000526020600020905b815481529060010190602001808311610eba57829003601f168201915b50505050508152602001600382018054600181600116156101000203166002900480601f016020809104026020016040519081016040528092919081815260200182805460018160011615610100020316600290048015610f795780601f10610f4e57610100808354040283529160200191610f79565b820191906000526020600020905b815481529060010190602001808311610f5c57829003601f168201915b505050505081526020016004820154815260200160058201548152505081526020019060010190610d6f565b50505050905090565b60028181548110610fbb57fe5b90600052602060002090600602016000915090508060000160009054906101000a900473ffffffffffffffffffffffffffffffffffffffff16908060010160009054906101000a900473ffffffffffffffffffffffffffffffffffffffff1690806002018054600181600116156101000203166002900480601f0160208091040260200160405190810160405280929190818152602001828054600181600116156101000203166002900480156110b35780601f10611088576101008083540402835291602001916110b3565b820191906000526020600020905b81548152906001019060200180831161109657829003601f168201915b505050505090806003018054600181600116156101000203166002900480601f0160208091040260200160405190810160405280929190818152602001828054600181600116156101000203166002900480156111515780601f1061112657610100808354040283529160200191611151565b820191906000526020600020905b81548152906001019060200180831161113457829003601f168201915b5050505050908060040154908060050154905086565b600080633b9aca00838161117757fe5b04905080915050919050565b600080670de0b6b3a7640000838161119757fe5b04905080915050919050565b60006111b56111b0610829565b610c46565b905090565b606081905060606040518060400160405280600581526020017f6d6f6e657900000000000000000000000000000000000000000000000000000081525090506000349050600061120934610804565b905060026040518060c001604052803373ffffffffffffffffffffffffffffffffffffffff168152602001600160009054906101000a900473ffffffffffffffffffffffffffffffffffffffff1673ffffffffffffffffffffffffffffffffffffffff16815260200185815260200186815260200184815260200142815250908060018154018082558091505060019003906000526020600020906006020160009091909190915060008201518160000160006101000a81548173ffffffffffffffffffffffffffffffffffffffff021916908373ffffffffffffffffffffffffffffffffffffffff16021790555060208201518160010160006101000a81548173ffffffffffffffffffffffffffffffffffffffff021916908373ffffffffffffffffffffffffffffffffffffffff160217905550604082015181600201908051906020019061135b929190611487565b506060820151816003019080519060200190611378929190611487565b506080820151816004015560a08201518160050155505060016000808282540192505081905550600160009054906101000a900473ffffffffffffffffffffffffffffffffffffffff1673ffffffffffffffffffffffffffffffffffffffff166108fc349081150290604051600060405180830381858888f19350505050158015611407573d6000803e3d6000fd5b503373ffffffffffffffffffffffffffffffffffffffff167f6c467d59b2d9714dffe66bc22fe0fde02a9db546501dc72442fda03a7ac2d2ab600160009054906101000a900473ffffffffffffffffffffffffffffffffffffffff1685878642604051611478959493929190611a41565b60405180910390a25050505050565b828054600181600116156101000203166002900490600052602060002090601f016020900481019282601f106114c857805160ff19168380011785556114f6565b828001600101855582156114f6579182015b828111156114f55782518255916020019190600101906114da565b5b5090506115039190611507565b5090565b5b80821115611520576000816000905550600101611508565b5090565b60008151905061153381611d61565b92915050565b600082601f83011261154a57600080fd5b813561155d61155882611bbb565b611b8e565b9150808252602083016020830185838301111561157957600080fd5b611584838284611d0e565b50505092915050565b60008135905061159c81611d78565b92915050565b6000815190506115b181611d78565b92915050565b6000815190506115c681611d8f565b92915050565b6000602082840312156115de57600080fd5b600082013567ffffffffffffffff8111156115f857600080fd5b61160484828501611539565b91505092915050565b60006020828403121561161f57600080fd5b600061162d8482850161158d565b91505092915050565b60006020828403121561164857600080fd5b6000611656848285016115a2565b91505092915050565b600080600080600060a0868803121561167757600080fd5b6000611685888289016115b7565b955050602061169688828901611524565b94505060406116a7888289016115a2565b93505060606116b8888289016115a2565b92505060806116c9888289016115b7565b9150509295509295909350565b60006116e28383611902565b905092915050565b6116f381611cc6565b82525050565b61170281611c6a565b82525050565b61171181611c58565b82525050565b61172081611c58565b82525050565b600061173182611bf7565b61173b8185611c1a565b93508360208202850161174d85611be7565b8060005b85811015611789578484038952815161176a85826116d6565b945061177583611c0d565b925060208a01995050600181019050611751565b50829750879550505050505092915050565b6117a481611cd8565b82525050565b60006117b582611c02565b6117bf8185611c36565b93506117cf818560208601611d1d565b6117d881611d50565b840191505092915050565b60006117ee82611c02565b6117f88185611c47565b9350611808818560208601611d1d565b61181181611d50565b840191505092915050565b6000611829603483611c47565b91507f547279696e6720746f207769746864726177206d6f7265206d6f6e657920746860008301527f616e2074686520636f6e7472616374206861732e0000000000000000000000006020830152604082019050919050565b600061188f602783611c47565b91507f4661696c656420746f207769746864726177206d6f6e65792066726f6d20636f60008301527f6e74726163742e000000000000000000000000000000000000000000000000006020830152604082019050919050565b60006118f5600083611c2b565b9150600082019050919050565b600060c08301600083015161191a6000860182611708565b50602083015161192d6020860182611708565b506040830151848203604086015261194582826117aa565b9150506060830151848203606086015261195f82826117aa565b91505060808301516119746080860182611992565b5060a083015161198760a0860182611992565b508091505092915050565b61199b81611ca6565b82525050565b6119aa81611ca6565b82525050565b60006119bb826118e8565b9150819050919050565b60006020820190506119da60008301846116f9565b92915050565b600060a0820190506119f560008301886116ea565b8181036020830152611a0781876117e3565b90508181036040830152611a1b81866117e3565b9050611a2a606083018561179b565b611a3760808301846119a1565b9695505050505050565b600060a082019050611a5660008301886116ea565b8181036020830152611a6881876117e3565b90508181036040830152611a7c81866117e3565b9050611a8b60608301856119a1565b611a9860808301846119a1565b9695505050505050565b600060c082019050611ab76000830189611717565b611ac46020830188611717565b8181036040830152611ad681876117e3565b90508181036060830152611aea81866117e3565b9050611af960808301856119a1565b611b0660a08301846119a1565b979650505050505050565b60006020820190508181036000830152611b2b8184611726565b905092915050565b60006020820190508181036000830152611b4c8161181c565b9050919050565b60006020820190508181036000830152611b6c81611882565b9050919050565b6000602082019050611b8860008301846119a1565b92915050565b6000604051905081810181811067ffffffffffffffff82111715611bb157600080fd5b8060405250919050565b600067ffffffffffffffff821115611bd257600080fd5b601f19601f8301169050602081019050919050565b6000819050602082019050919050565b600081519050919050565b600081519050919050565b6000602082019050919050565b600082825260208201905092915050565b600081905092915050565b600082825260208201905092915050565b600082825260208201905092915050565b6000611c6382611c86565b9050919050565b6000611c7582611c86565b9050919050565b6000819050919050565b600073ffffffffffffffffffffffffffffffffffffffff82169050919050565b6000819050919050565b600069ffffffffffffffffffff82169050919050565b6000611cd182611cea565b9050919050565b6000611ce382611ca6565b9050919050565b6000611cf582611cfc565b9050919050565b6000611d0782611c86565b9050919050565b82818337600083830152505050565b60005b83811015611d3b578082015181840152602081019050611d20565b83811115611d4a576000848401525b50505050565b6000601f19601f8301169050919050565b611d6a81611c7c565b8114611d7557600080fd5b50565b611d8181611ca6565b8114611d8c57600080fd5b50565b611d9881611cb0565b8114611da357600080fd5b5056fea26469706673582212205f7360bc4b7b260b11b76aa6ea62fcad5889b029c62a38b7954747da25e1601e64736f6c634300060c0033",
  "linkReferences": {},
  "deployedLinkReferences": {}
}